:020000040800F2
:100000008806012051020008B50C0008AF0A00085C
:10001000B10C0008F5080008EB180008000000000B
:10002000000000000000000000000000A91300080C
:10003000F908000800000000D710000801150008AA
:100040006B0200086B0200086B0200086B020008DC
:100050006B0200086B0200086B0200086B020008CC
:100060006B0200086B020008FB0800086B02000826
:100070006B0200086B0200086B0200086B020008AC
:100080006B0200086B0200086B0200086B0200089C
:100090006B0200086B0200086B0200086B0200088C
:1000A0006B0200086B0200086B0200086B0200087C
:1000B0006B0200086D1500086B0200086B02000857
:1000C0006B0200086B0200086B0200086B0200085C
:1000D0006B020008CD1600086B0200086B020008D6
:1000E0006B0200086B0200086B0200086B0200083C
:1000F0006B0200086B0200086B0200086B0200082C
:100100006B0200086B0200086B0200086B0200081B
:100110006B0200086B0200086B0200086B0200080B
:100120006B0200086B0200086B0200086B020008FB
:100130006B0200086B0200086B0200086B020008EB
:100140006B0200086B0200086B0200086B020008DB
:100150006B0200086B0200086B0200086B020008CB
:100160006B0200086B0200086B0200086B020008BB
:100170006B0200086B0200086B0200086B020008AB
:100180006B0200086B02000800F002F800F050F863
:100190000AA090E8000C82448344AAF10107DA45E2
:1001A00001D100F045F8AFF2090EBAE80F0013F0E4
:1001B000010F18BFFB1A43F00103184768BC000089
:1001C00088BC0000103A24BF78C878C1FAD852071A
:1001D00024BF30C830C144BF04680C6070470000C1
:1001E0000023002400250026103A28BF78C1FBD840
:1001F000520728BF30C148BF0B607047702900F01C
:100200001581642900F0A280752900F09F8078296B
:1002100000F0FF80632900F00283732900F0078358
:10022000002070471FB509F081FF1FBD10B510BD3C
:1002300000F030FB1146FFF7F5FF04F053FD00F02E
:100240004EFB03B4FFF7F2FF03BC01F083FB000099
:100250000948804709480047FEE7FEE7FEE7FEE75A
:10026000FEE7FEE7FEE7FEE7FEE7FEE70448054996
:10027000054A064B70470000051500088901000873
:1002800088000120880601208802012088020120C0
:10029000704700000FB4044910B503AA029800F09B
:1002A000CBFA10BC5DF814FB1000002070B50446BA
:1002B00085690068C10601D5302600E02026C00708
:1002C00007D070BDD4E9012130469047206A401C18
:1002D00020626D1EF6D570BD70B504468569007844
:1002E000C00707D170BDD4E9012120209047206AC2
:1002F000401C20626D1EF6D570BD70B50C460546DB
:10030000012A05D02878800600D5EA69002302E09A
:10031000012305E05B1C934202D2E05C0028F9D186
:10032000A869E618C01AA861286A184428622846F5
:10033000FFF7BCFF04E0D5E9012114F8010B904759
:10034000B442F8D32846FFF7C7FF70BD2DE9F0414E
:100350000646002410687529314616A510D0AFF363
:100360000080002802DA404213A507E031688A07BE
:1003700001D512A502E0490704D511A5012401E029
:10038000AFF3008000210A2206F1240709E0B0FB48
:10039000F2FCB0FBF2F302FB1C003030785418463C
:1003A000491C0028F3D123462A463046BDE8F041D7
:1003B00000F0D2B9000000002D0000002B0000006A
:1003C00020000000F0B40D460188090502D51B4C41
:1003D0007C4402E0194C7C440E34002100F12403DB
:1003E00005E002F00F061209A65D5E54491C002AC2
:1003F000F7D102780023120704D5702D06D009B179
:10040000022311342246F0BC00F0A6B901231034B7
:10041000F8E770B504460D4621461068AFF300803A
:10042000024629462046BDE87040CBE703681268C3
:1004300043F0200303600823C361C3E7D0B5000085
:100440002DE9F05F894604464FF0000ADFF824B139
:10045000FB44C0F820A02046E168884700287DD0F2
:10046000252806D0D4E901219047206A401C20624B
:10047000F1E700255F462046E168884720280646C8
:1004800007DB312E05D2B81910F8200C08B105434E
:10049000F1E7A80701D525F00405C4F81CA0002742
:1004A000C4F818A02A2E09D0304601F04CFA38B30F
:1004B00004EB8708303EC8F8186019E059F8041BAF
:1004C000204604EB87029161E1688847012F0646C8
:1004D00018D1E069002820DA25F020051DE0D8F8C1
:1004E000180000EB800006EB40003038C8F8180018
:1004F0002046E1688847064601F025FA0028EED13B
:10050000012F0AD02E2E08D12046E16888477F1C93
:100510000646022F45F02005C4DBA069002803DA57
:10052000404245F00105A061E80701D025F0100523
:10053000A6B1A6F14100192802D8203645F400657D
:100540004A463146204625604D46FFF757FE60B1CA
:10055000012807D0ED1D25F0070000E007E000F1BD
:10056000080978E705F1040975E730467AE7206A5B
:10057000BDE8F09F78B5000040EA010310B59B0785
:100580000FD1042A0DD310C808C9121F9C42F8D0FD
:1005900020BA19BA884201D9012010BD4FF0FF30AE
:1005A00010BD1AB1D30703D0521C07E0002010BDC4
:1005B00010F8013B11F8014B1B1B07D110F8013B50
:1005C00011F8014B1B1B01D1921EF1D1184610BD31
:1005D000032A40F2308010F0030C00F0158011F86F
:1005E000013BBCF1020F624498BF11F801CB00F847
:1005F000013B38BF11F8013BA2F1040298BF00F89B
:1006000001CB38BF00F8013B11F0030300F0258057
:10061000083AC0F0088051F8043B083A51F804CB7E
:10062000A0E80810F5E7121D5CBF51F8043B40F844
:10063000043BAFF30080D20724BF11F8013B11F84F
:1006400001CB48BF11F8012B24BF00F8013B00F893
:1006500001CB48BF00F8012B704710B5203AC0F01D
:100660000B80B1E81850203AA0E81850B1E81850B3
:10067000A0E81850BFF4F5AF5FEA027C24BFB1E8F0
:100680001850A0E8185044BF18C918C0BDE8104061
:100690005FEA827C24BF51F8043B40F8043B08BF6A
:1006A0007047D20728BF31F8023B48BF11F8012B31
:1006B00028BF20F8023B48BF00F8012B70474FF0DD
:1006C00000020429C0F0128010F0030C00F01B801F
:1006D000CCF1040CBCF1020F18BF00F8012BA8BF2D
:1006E00020F8022BA1EB0C0100F00DB85FEAC17CF1
:1006F00024BF00F8012B00F8012B48BF00F8012BA4
:1007000070474FF0000200B51346944696462039D4
:1007100022BFA0E80C50A0E80C50B1F12001BFF4BA
:10072000F7AF090728BFA0E80C5048BF0CC05DF820
:1007300004EB890028BF40F8042B08BF704748BF6E
:1007400020F8022B11F0804F18BF00F8012B7047E2
:1007500070477047704770472DE9F0470D4699463E
:100760009246044600F124080168880604D5E06931
:1007700021F01001216000E00120A84201DD471BAB
:1007800000E00027A1697A1902EB0900081AA061AC
:100790002078C00602D42046FFF788FD002608E036
:1007A000D4E901211AF806009047206A401C761C03
:1007B00020624E45F4DB2078C0060AD52046FFF7BC
:1007C00075FD06E0D4E9012130209047206A401CE5
:1007D0002062381EA7F10107F4DC07E0D4E901210B
:1007E00018F805009047206A401C2062281EA5F1D9
:1007F0000105F3DC2046FFF76FFD2078000602D5E7
:100800000220BDE8F0870120FBE710B5436913B172
:10081000AFF3008001E0FFF770FD012010BD1278FA
:1008200000F124010A7000224A700122EDE71168EC
:100830004FF0FF32E9E70000074B70B50D467B44EF
:1008400000F011F80446284600F020F810B14FF0EF
:10085000FF3070BD204670BDEB2B000001694A1CC3
:1008600002610878704700B58FB0CDE901310021F1
:10087000059105497944CDE9031011466846FFF713
:10088000DFFD0FB000BD0000E5FFFFFF007B00F0C3
:1008900080007047754600F029F8AE4605006946AD
:1008A000534620F00700854618B020B5FFF7DEFC60
:1008B000BDE820404FF000064FF000074FF0000861
:1008C0004FF0000B21F00701AC46ACE8C009ACE8E2
:1008D000C009ACE8C009ACE8C0098D4670470446C1
:1008E000AFF300802046FFF7ACFC000000487047E3
:1008F0002400012000BFFEE7704710B5102000F073
:100900000DF820B105F07EFD102000F001F810BDBB
:100910000149086070470000143C01400146002076
:10092000034A12680A400AB1012000E00020704723
:10093000143C0140002123498279002A3AD00A461A
:10094000126803689A430B461A600A1D126803680E
:100950009A430B1D1A60027911440A6803681A430E
:100960000A60184A0832126803689A43154B083324
:100970001A601A1D126803689A43124B0C331A60EE
:100980004279102A0ED11A1F126803681A430D4BC0
:1009900008331A601A1D126803681A43094B0C3396
:1009A0001A600DE00749427911440A6803681A4346
:1009B0000A6005E0027911440A6803689A430A60F4
:1009C00070470000003C0140F0B50A4600210023BA
:1009D000002400BF3DE0012505FA01F3156805EA92
:1009E00003049C4234D105684F000326BE40B54342
:1009F000056015794E00B5400668354305601579E8
:100A0000012D02D01579022D16D185684F000326DD
:100A1000BE40B543856055794E00B5408668354384
:100A20008560456801268E40B543456045689679E6
:100A30008E40B6B235434560C5684F000326BE40C0
:100A4000B543C560D5794E00B540C6683543C5602D
:100A5000491C1029BFD3F0BDF0B5002300244D0779
:100A6000ED0E02FA05F3CE1000F1200555F82650E0
:100A70004E07F70E0F26BE40B543CF1000F12006FB
:100A800046F82750CE1000F1200555F8265045EACB
:100A90000304CE1000F1200545F82640F0BD418347
:100AA00070470183704742694A404261704700BF06
:100AB000FEE700001CB50121022000F00DFB4FF401
:100AC0004060009001208DF8040000208DF80600A1
:100AD00003208DF8050001208DF8070069460548C0
:100AE000FFF772FF0120044908600449C1F8AC0215
:100AF0001CBD000000040240A88240420080404229
:100B000070B504461348006820F44000114908609D
:100B10000846006840F48000086000200E49086024
:100B2000002513E0E0090C49091D08606006040E69
:100B3000012000F05BFF01200849C1F8A80200F085
:100B400055FF002004490860681CC5B2082DE9DB88
:100B500070BD000000040240A88240420080404274
:100B600010B50F48006820F440000D4908600846A1
:100B7000006840F48000086001200A4908600A49C2
:100B8000C1F8A802042000F031FF002005490860E8
:100B9000042000F02BFF00200349C1F8A80210BD7B
:100BA00000040240AC8240420080404210B50F4831
:100BB000006820F440000D4908600846006840F4D1
:100BC0008000086000200A4908600A49C1F8AC02A8
:100BD000042000F00BFF0120054908600549C1F819
:100BE000AC02042000F002FF10BD0000000402402F
:100BF000A88240420080404210B50024134800689B
:100C000020F440001149086008460068086001208F
:100C10000F49086000F0EAFE01200E49C1F8A80261
:100C200000F0E4FE07E0601CC4B2FA2C03DDFFF71D
:100C3000BDFF012010BD0648803800680028F2D1B1
:100C40000349091F086000BFF4E7000000040240E8
:100C5000AC824042008040421CB50121032000F0DC
:100C60003BFA4FF40040009001208DF80400002072
:100C70008DF8060003208DF8050001208DF807008F
:100C800069460948FFF7A0FE102000906946074812
:100C9000FFF79AFE4FF460410348FFF700FF102171
:100CA0000248FFF7FCFE1CBD0000024000040240A9
:100CB00000BFFEE77047000070B5002100230F223F
:100CC000C4781CB3174C246804F4E064C4F5E064F1
:100CD000C4F30721C1F10404E3B20A4144789C4003
:100CE000E1B28478144021430C07210E0E4C0578A4
:100CF0006155047804F01F050124AC4005786D119E
:100D0000AD0005F1E025C5F8004109E0047804F0E4
:100D10001F050124AC40054D0678761145F82640A4
:100D200070BD00000CED00E000E400E080E100E0B8
:100D300010B54FF480610348FFF7C1FC00F0E4F800
:100D400010BD0000F000002010B500218D2000F043
:100D5000B6F90021142000F0B2F90021AF2000F014
:100D6000AEF910BDF0B5144600267F2801DC3F29FE
:100D700000DDF0BD0B46CF1701EB5777C7F3C70275
:100D8000CF1701EB5777FF10A1EBC707FDB2012387
:100D9000AB40DEB24CB10A4B03EBC0039B5C334368
:100DA000074F07EBC007BB5408E0054B03EBC0033C
:100DB0009B5CB343024F07EBC007BB5400BFD8E7AF
:100DC000F00000201CB50121062000F085F94FF449
:100DD0004060009001208DF8040002208DF805008D
:100DE00000208DF8060069464548FFF7EDFD2020FC
:100DF000009069464348FFF7E7FDFFF75BFE2021BF
:100E00004048FFF74CFEC82000F0D4FD20213D48AB
:100E1000FFF747FE4FF4FA7000F0CCFD0021AE2042
:100E200000F04DF90021084600F049F9002110209A
:100E300000F045F90021402000F041F90021B020E8
:100E400000F03DF90021812000F039F90021FF2058
:100E500000F035F90021A12000F031F90021A62091
:100E600000F02DF90021A82000F029F900213F20F1
:100E700000F025F90021C82000F021F90021D3203D
:100E800000F01DF90021084600F019F90021D520D5
:100E900000F015F90021802000F011F90021D82080
:100EA00000F00DF90021052000F009F90021D920FA
:100EB00000F005F90021F12000F001F90021DA200D
:100EC00000F0FDF80021122000F0F9F80021DB20ED
:100ED00000F0F5F80021302000F0F1F800218D201D
:100EE00000F0EDF80021142000F0E9F80021AF2017
:100EF00000F0E5F8FFF728FFFFF71AFF1CBD000020
:100F0000000402400008024070B500241BE004F118
:100F1000B000002100F0D3F80021084600F0CFF81F
:100F20000021102000F0CBF8002508E0074901EB74
:100F3000C501085D012100F0C2F8681CC5B2802D12
:100F4000F4DB601CC4B2082CE1DB70BDF0000020B3
:100F50002DE9F84F80460F4616461C46BA462046F5
:100F6000E31704EB5373DB1021464FEAE47C04EBF8
:100F70005C7C4FEAEC0CA4EBCC0CBCF1000F02D073
:100F80004FF0010C01E04FF0000C6344224604EBEB
:100F9000D27C4FEA6C0C03FB0CF303F0FF0BA6F1C1
:100FA0002000C6B200254EE00C2C07D106EB46000F
:100FB000274901EB8000405D009013E0102C05D123
:100FC000244800EB0610405D00900BE0182C07D180
:100FD00006EBC600204901EB8000405D009001E077
:100FE000BDE8F88F4FF0000927E0009800F080007E
:100FF00028B1394640460A9AFFF7B4FE09E00A983C
:1010000008B9012000E00020024639464046FFF7BB
:10101000A9FE00984006000E0090781CC7B2A7EB0E
:101020000A00A04205D1574608F1010000F0FF0870
:1010300006E009F1010000F0FF09B9F1080FD4DB67
:1010400000BF681CC5B25D45AEDB00BFC8E700004D
:1010500036A10008AAA500089AAB0008F8B5064614
:101060000F4615461C4621E004EBD4714910C1F12E
:101070008001B14202DA00263819C7B2C4F140003B
:10108000B84204DA002006460746FFF751FE012069
:1010900000902A78234639463046FFF759FF20460C
:1010A00004EBD07106EB6101CEB26D1C28787E286E
:1010B00002DC28782028D7DAFFF726FFF8BD70B5C4
:1010C00004460D461DB1E0B200F027FC02E0E0B29C
:1010D00000F00DFC70BD704729B1064A126802434A
:1010E000044B1A6004E0034A12688243014B1A6001
:1010F000704700003038024029B1064A12680243A6
:10110000044B1A6004E0034A12688243014B1A60E0
:10111000704700004038024029B1064A1268024375
:10112000044B1A6004E0034A12688243014B1A60C0
:10113000704700004438024029B1064A1268024351
:10114000044B1A6004E0034A12688243014B1A60A0
:101150007047000024380240F0B50021002200242E
:10116000022500260223324F3F6807F00C0121B10F
:10117000042905D0082937D105E02E4F076036E055
:101180002D4F076033E02A4F3F1F3F68C7F380565B
:10119000274F3F1F3F6807F03F036EB1264FB7FB55
:1011A000F3F7DFF88CC0ACF1040CDCF800C0CCF332
:1011B000881C07FB0CF40CE01E4FB7FBF3F7DFF8BD
:1011C00070C0ACF1040CDCF800C0CCF3881C07FB49
:1011D0000CF4174F3F1F3F68C7F301477F1C7D008A
:1011E000B4FBF5F7076002E0124F076000BF00BFD5
:1011F0000F4F3F6807F0F0010909104F7A5C07684C
:10120000D74047600A4F3F6807F4E051890A0B4F07
:101210007A5C4768D7408760054F3F6807F46041B4
:10122000490B064F7A5C4768D740C760F0BD0000A5
:10123000083802400024F40000127A001600002052
:1012400000B587B001210846FFF746FF01210803DA
:10125000FFF762FFE020059002208DF818000020C3
:101260008DF81A0003208DF8190001208DF81B005D
:1012700005A92148FFF7A8FB052211461E48FFF7E4
:10128000EBFB052206211C48FFF7E6FB05220721A0
:101290001948FFF7E1FB01210803FFF74DFF00218B
:1012A0004FF48050FFF748FF0020ADF800004FF4E6
:1012B0008270ADF802000020ADF80400ADF8060021
:1012C000ADF808004FF40070ADF80A002020ADF82A
:1012D0000C000020ADF80E000720ADF810006946A4
:1012E000064800F043F80121044800F025F8FF20EB
:1012F00000F006F807B000BD0000024000300140D9
:1013000010B5044600BF02210A4800F021F8002869
:10131000F9D02146074800F027F800BF0121054811
:1013200000F016F80028F9D0024800F01AF8C0B210
:1013300010BD00000030014021B1028842F040029F
:10134000028004E002884FF6BF731A4002807047A3
:101350000246002013890B400BB1012000E0002061
:1013600070470146888970478181704710B5002217
:10137000028802F441520B884C8823438C88234313
:10138000CC8823430C8923434C8923438C892343F2
:10139000CC8923431A430280838B4FF2FF7423408E
:1013A00083830B8A038210BD7047000030B5002292
:1013B0008B071C0F0F2303FA04F20B4B8C1053F80E
:1013C00024309343084C8D1044F8253023468C106C
:1013D00053F824308C07240F00FA04F42343024C02
:1013E0008D1044F8253030BD083801400CB5002080
:1013F000019000903448006840F480303249086021
:1014000000BF3148006800F4003000900198401C93
:101410000190009818B90198B0F5A04FF1D12A4871
:10142000006800F4003010B10120009001E00020BD
:1014300000900098012846D123484030006840F0D1
:1014400080502149403108602048006840F4404005
:101450001E4908601C48083000681B4908310860B4
:101460000846006840F4004008600846006840F400
:10147000A05008601648091F0860081F006840F067
:101480008070091F086000BF0F48006800F00070FE
:101490000028F9D040F205700E4908600A4808306B
:1014A000006820F003000849083108600846006819
:1014B00040F00200086000BF03480830006800F0F8
:1014C0000C000828F8D10CBD003802400070004024
:1014D00008544007003C0240042808D14FF0E021A6
:1014E000096941F004014FF0E022116107E04FF07B
:1014F000E021096921F004014FF0E02211617047F9
:101500007047000010B51548006840F4700013499A
:1015100008601348006840F001001149086000208D
:101520000F49083108600E4800680E4908400C4910
:1015300008600D48091D0860081F006820F480201D
:10154000091F0860002006490C310860FFF74EFFB4
:101550004FF0006001498039086010BD88ED00E05F
:1015600000380240FFFFF6FE1030002410B50121C4
:10157000074800F04EF8012804D1064800681430EE
:10158000044908600121024800F034F810BD000051
:1015900000040040080000207FB505460C460121EC
:1015A0000220FFF7A9FD0295ADF804400020ADF838
:1015B0000600ADF80C0001A90D4800F045F8012225
:1015C00011460B4800F036F80121094800F015F8E3
:1015D0001D208DF8000001208DF8010003208DF8FA
:1015E000020001208DF803006846FFF765FB7FBD10
:1015F00000040040CA430282704721B1028842F0D1
:101600000102028004E002884FF6FE731A40028055
:10161000704730B50246002000230024158A05EAF1
:101620000103958905EA010413B10CB1012000E022
:10163000002030BD1AB183890B43838102E0838986
:101640008B4383817047000000220288184B984228
:101650000ED0184B98420BD0B0F1804F08D0164BEB
:10166000984205D0154B984202D0154B984204D1B0
:101670004FF68F731A404B881A43124B984207D08B
:10168000114B984204D04FF6FF431A400B891A437E
:1016900002804B68C3620B880385054B984202D0D9
:1016A000044B984201D18B7A0386012383827047D1
:1016B0000000014000040140000400400008004018
:1016C000000C0040001000400014004010B540F233
:1016D00025511D4800F04AF810B31B4800F000F9EE
:1016E000C4B21A48008800F40040C8B917480088FE
:1016F00000F4804060B10A2C03D000201349088018
:1017000020E01248008840F400401049088019E0A9
:101710000D2C06D10D48008840F480400B4908800C
:1017200010E00A480088C0F30D0009490C5407482E
:101730000088401C0549088008460088C72801DD4C
:101740000020088010BD000000100140140000209F
:10175000F004002021B1828942F40052828104E029
:1017600082894DF6FF731A408281704770B5024638
:10177000002400230025002040F66A16B14200D163
:1017800000BFC1F3421501F01F03012606FA03F35F
:10179000012D02D19689334006E0022D02D1168A2E
:1017A000334001E0968A33400C12012606FA04F415
:1017B0001688344013B10CB1012000E0002070BD48
:1017C000F0B50346002400260025002040F66A17E5
:1017D000B94200D100BF1846C1F3421401F01F0600
:1017E000012707FA06F5012C01D10C3004E0022C88
:1017F00001D1103000E014301AB107682F430760A0
:1018000002E00768AF430760F0BD00002DE9FF4725
:1018100005460E460024A14600BFA046B08900B18F
:1018200000BF2C8A24F44054F08804432C82AC89F5
:1018300041F20C608443B0883189084371890843C0
:101840000443AC81AC8A24F44074B0890443AC8274
:101850006846FFF781FC2048854202D01F48854238
:1018600002D1DDF80C9001E0DDF80890A88900F4C1
:10187000004040B109EBC90000EB09103168490094
:10188000B0FBF1F707E009EBC90000EB0910316884
:101890008900B0FBF1F76420B7FBF0F004012009E8
:1018A000642101FB1078A88900F4004040B1322087
:1018B00000EBC800B0FBF1F000F00700044308E0C3
:1018C000322000EB08106421B0FBF1F000F00F00B3
:1018D00004432C81BDE8FF87001001400014014043
:1018E00001468888C0F30800704700BFFEE710B5C6
:1018F0000446FFF735F97820FFF702F9FFF77CF986
:101900000020FFF7FDF8FFF777F92046FFF7F8F81A
:10191000FFF772F9FFF74AF910BD10B50446FFF75B
:101920001FF97820FFF7ECF8FFF766F94020FFF782
:10193000E7F8FFF761F92046FFF7E2F8FFF75CF9F7
:10194000FFF734F910BD30380A2801D20120704762
:101950000020704700BF704710B5044600BF00BFAD
:1019600001F01CFB0022034941F2883004F0F2FD33
:1019700010BD00005919000810B504466FF00400AE
:10198000FFF7AAFDE11704EB5171C1F3C701074A44
:1019900011701046007800EB4001C1EBC0104FF60B
:1019A000FF7101EAC0000249088010BD0C00002050
:1019B0000E00002070B504464FF4077094FBF0F061
:1019C000C6B24FF4077094FBF0F100FB114085B2F2
:1019D00005E04FF4077000F02FF8701EC6B2002E1D
:1019E000F7D115B1284600F027F870BD0146114A1D
:1019F00012784A434FF0E0235A6100229A611A4656
:101A0000126942F001021A6100BF4FF0E022106932
:101A100000F001021AB100F48032002AF5D04FF034
:101A2000E022126922F001024FF0E0231A61002245
:101A30009A6170470C0000200146114A12884A43FF
:101A40004FF0E0235A6100229A611A46126942F06F
:101A500001021A6100BF4FF0E022106900F001029C
:101A60001AB100F48032002AF5D04FF0E02212695A
:101A700022F001024FF0E0231A6100229A617047C0
:101A80000E00002070B50446002500F01BFAFFF799
:101A9000D7FBC820FFF78EFF01205C490860FF22BA
:101AA0000021104600F0F0F900BF1D2000F069F998
:101AB000054605F001000028F7D0002054490860D1
:101AC0000021082000F0BCF90021092000F0B8F93D
:101AD00000210C2000F0B4F900210D2000F0B0F935
:101AE000FE210A2000F0ACF919210B2000F0A8F922
:101AF000FF21042000F0A4F91921052000F0A0F92D
:101B0000FF21062000F09CF91F21072000F098F922
:101B1000B021382000F094F93F21282000F090F9FE
:101B20003021292000F08CF9F921302000F088F9CB
:101B3000F721312000F084F90D21C02000F080F958
:101B40000021C12000F07CF93322C221802000F066
:101B50009BF91221C62000F073F90C21C72000F078
:101B60006FF91521C42000F06BF9DC21CA2000F0C8
:101B700067F90521CB2000F063F92178E42000F01B
:101B80005FF96178E52000F05BF9A178E22000F0D0
:101B900057F9E178E32000F053F92179E02000F0D3
:101BA0004FF96179E12000F04BF9E42000F0E9F809
:101BB0000546E52000F0E5F80546E22000F0E1F8F2
:101BC0000546E32000F0DDF80546E02000F0D9F8F6
:101BD0000546E12000F0D5F805464FF4807100205D
:101BE00000F0B6F84FF48071102000F0B1F81F201B
:101BF00000F00CF9C1221B21802000F045F90422DD
:101C00001F21802000F040F970BD0000900240428A
:101C1000040000202DE9F04105460F46392000F070
:101C2000B0F810B90020BDE8F08129480178002003
:101C300000F006F926480088C0F30721012000F0D3
:101C4000FFF800213A2000F0C1F821490860002186
:101C50003A2000F0BBF81E49096841EA00201C49FF
:101C6000086000213A2000F0B1F8044600213A2033
:101C700000F0ACF844EA0024241F00213A2000F0D0
:101C8000A5F8064600213A2000F0A0F846EA002612
:101C9000681EA04200D26C1E06F0800008B9002425
:101CA00003E03946204600F077F8094801780C2017
:101CB00000F0C6F806480088C0F307210D2000F0A8
:101CC000BFF840221E21802000F0DEF82046AAE75F
:101CD0000400002070B504460D4600BF1F2000F030
:101CE00050F800F008000028F8D1FF21022000F091
:101CF000A7F81921032000F0A3F8FF202044C1B267
:101D0000062000F09DF841F6FF102044C0F30721A3
:101D1000072000F095F8002211467A2000F0B4F870
:101D20002946204600F098F808221F21802000F064
:101D3000ABF81C2000F025F800F0020038B11F209D
:101D400000F064F808221F21A02000F09DF870BD6B
:101D500070B505460C462946D42000F071F8E1B272
:101D6000D62000F06DF8C4F30721D72000F068F802
:101D700000BFEA2000F005F800F001000028F8D1CB
:101D800070BD10B50446204600F040F82146002002
:101D900000F01CF810BD000070B505460C46002090
:101DA000094908603A20FFF7ABFA05E06D1E0020F4
:101DB000FFF7A6FA2070641C002DF7D100202070D8
:101DC00001200149086070BD9002404270B505468F
:101DD0000C46002600200C49086004F01F0040EA71
:101DE00005063046FFF78CFAFF20FFF789FA064612
:101DF00004F0800018B1FF20FFF782FA06460120A8
:101E000001490860304670BD9002404210B504465A
:101E100004F060000949097888420ED003221F218E
:101E2000A02000F031F8C4F341121F21802000F0FF
:101E30002BF804F060000149087010BD000000207C
:101E400070B504460D462046FFF7E0FF2A462146BE
:101E5000402000F019F870BD70B504460D46002012
:101E6000084908607A20FFF74BFA04E0641E2878DE
:101E7000FFF746FA6D1C002CF8D1012001490860DB
:101E800070BD0000900240422DE9F04104460D462D
:101E90001646002700200949086005F01F0040EAA7
:101EA00004073846FFF72CFA37463846FFF728FA7A
:101EB00001200349C1F89002BDE8F0819002404240
:101EC0000000404200B585B001210520FFF704F96C
:101ED00001218803FFF720F91020039001208DF8DD
:101EE000100000208DF8120003208DF81100012051
:101EF0008DF8130003A91A48FEF766FD1020039021
:101F000000208DF8100003208DF8110001208DF8BD
:101F1000130003A91348FEF757FD04210220FFF721
:101F200045FA1020019000208DF808000C208DF853
:101F3000090001208DF80A0001A8FEF7FBFC0A2029
:101F40008DF8000000208DF8010002208DF80200BD
:101F500001208DF803006846FEF7AEFE05B000BD17
:101F600000000240000802402DE9FE4F0546884669
:101F7000164600BF25B970A0FEF78CF9BDE8FE8FAC
:101F800000BF70892A2815DA00BF31892A226EA085
:101F9000FEF780F900BF7A48408C401C81B2784837
:101FA0004184C08B401C81B27548C183304603F028
:101FB000A3FFE3E7776807F10E042088B0F5807F80
:101FC00008D12079062805D16079042802D16088DB
:101FD000082818D000BF6079009063882279218892
:101FE0006848FEF757F900BF6548008D401C81B274
:101FF00063480185C08B401C81B26148C183304673
:1020000003F07AFFBAE75E48408B401C81B25C481F
:102010004183D4F80E000290A0690190281D08B1F8
:10202000686810B94FF0000907E0019869688842B4
:1020300001D1012000E000208146B9F1000F01D05C
:10204000012000E00220034604F1080202A928460C
:1020500001F024F8E088B0F5807F03D0B0F5007F70
:1020600052D14BE000BF48A0FEF714F900BFB9F110
:10207000000F34D000BF4EA0FEF70CF900BF0220C5
:1020800002F0DFFDE080D4F80E00A0616868C4F8BB
:102090000E0000BF95F82200062804D05448FEF731
:1020A000F9F800BFFEE700BFA068C4F81200A089DD
:1020B000E082A0683860A089B880D8F80000A060ED
:1020C000B8F80400A081D8F80000C7F80600B8F8F6
:1020D0000400788131462846AA6990470DE0281D02
:1020E00008B1686820B900BF42A0FEF7D3F804E049
:1020F00000BF50A0FEF7CEF800BF16E000BF59A009
:10210000FEF7C8F800BF10E000BFE08802F099FDBC
:10211000824651465DA0FEF7BDF800BF1848808D8D
:10212000401C81B21648818500BF00BF304603F0D5
:10213000E3FE00BF22E700006E6574696620213D62
:10214000204E554C4C0000006574686172705F61F0
:1021500072705F696E7075743A207061636B65743C
:102160002064726F707065642C20746F6F207368C8
:102170006F7274202825642F2564290A000000004E
:10218000B8FE002028BA00086574686172705F614B
:1021900072705F696E7075743A20696E636F6D69F5
:1021A0006E672041525020726571756573740A0024
:1021B0006574686172705F6172705F696E7075746A
:1021C0003A207265706C79696E6720746F20415295
:1021D00050207265717565737420666F72206F751B
:1021E0007220495020616464726573730A000000B4
:1021F000A8BC00086574686172705F6172705F6985
:102200006E7075743A2077652061726520756E6313
:102210006F6E666967757265642C2041525020723A
:102220006571756573742069676E6F7265642E0AD7
:10223000000000006574686172705F6172705F69B0
:102240006E7075743A2041525020726571756573D5
:102250007420776173206E6F7420666F72207573BF
:102260002E0A00006574686172705F6172705F6948
:102270006E7075743A20696E636F6D696E67204188
:102280005250207265706C790A00000065746861B4
:1022900072705F6172705F696E7075743A2041523E
:1022A0005020756E6B6E6F776E206F70636F646514
:1022B00020747970652025640A0000002DE9FE4F26
:1022C000064688464FF00A09CA460A27002400201D
:1022D00002900190BB46009000BF73E004EB8400C5
:1022E0007D4901EB8000857C0A2F08D13DB900BFF4
:1022F00021467AA0FDF7CEFF00BF67B260E0002D57
:102300005ED000BF012D06D0022D04DA7EA0FDF7BD
:10231000C1FF00BFFEE700BF8EB104EB84016E4A2F
:1023200002EB810130684968884208D100BF21462C
:1023300085A0FDF7AFFF00BF60B2BDE8FE8F012DA5
:102340002AD104EB8400644951F8200088B104EBE1
:10235000840001EB8000C17C0098814230DB4FFAA1
:1023600084FB04EB84005C4901EB8000C07C00909E
:1023700026E004EB8400584901EB8000C17C029800
:1023800081421DDB4FFA84F904EB8400524901EBD2
:102390008000C07C029013E0022D11DB04EB84006E
:1023A0004D4901EB8000C17C0198814208DB4FFA66
:1023B00084FA04EB8400484901EB8000C07C019062
:1023C000601CC4B20A2C89DB08F0020020B90A2F75
:1023D0000AD108F0010038B900BF6648FDF75AFF7E
:1023E00000BF4FF0FF30A8E70A2F06DAFCB200BFAB
:1023F000214661A0FDF74EFF46E0BAF10A0F14DA5C
:102400000AF0FF0400BF214667A0FDF743FF00BFAD
:1024100000BF04EB8400304951F8200020B170A0C7
:10242000FDF738FF00BFFEE722E0B9F10A0F07DA37
:1024300009F0FF0400BF21466F48FDF72BFF17E0AE
:10244000BBF10A0F0CDA0BF0FF0400BF04EB8400B1
:10245000214951F8202021466848FDF71BFF07E07D
:1024600000BF67A0FDF716FF00BF4FF0FF3064E725
:1024700000BF0A2C04DB71A0FDF70CFF00BFFEE7D4
:1024800000BF204600F0FAF800BF0A2C04DB6BA066
:10249000FDF700FF00BFFEE700BF00BF04EB8400B4
:1024A0000D4901EB8000807C20B169A0FDF7F2FEB0
:1024B00000BFFEE700BF36B104EB8401064A02EB21
:1024C000810130684860002004EB8401024A02EB7D
:1024D0008101C87460B230E7B80500206574686196
:1024E00072705F66696E645F656E7472793A2066B9
:1024F0006F756E6420656D70747920656E74727985
:102500002025750A000000007374617465203D3D4C
:10251000204554484152505F53544154455F504503
:102520004E44494E47207C7C207374617465203E84
:102530003D204554484152505F53544154455F53E8
:102540005441424C450000006574686172705F66DA
:10255000696E645F656E7472793A20666F756E6439
:10256000206D61746368696E6720656E747279208E
:1025700025750A006CBB00086574686172705F663F
:10258000696E645F656E7472793A2073656C656319
:1025900074696E6720656D70747920656E747279E8
:1025A0002025750A000000006574686172705F661E
:1025B000696E645F656E7472793A2073656C6563E9
:1025C00074696E67206F6C646573742073746162E4
:1025D0006C6520656E7472792025750A0000000014
:1025E0006172705F7461626C655B695D2E71203D24
:1025F0003D204E554C4C0000E0B90008B0BB00082F
:102600006574686172705F66696E645F656E74722E
:10261000793A206E6F20656D707479206F72207228
:10262000656379636C61626C6520656E747269655F
:102630007320666F756E640A0000000069203C20FC
:102640004152505F5441424C455F53495A45000046
:102650006172705F7461626C655B695D2E73746139
:102660007465203D3D204554484152505F535441CC
:1026700054455F454D5054590000000010B50446C4
:1026800004EB84001E4951F82000B8B100BF04EBF0
:1026900084000B4653F82020A1B21AA0FDF7FAFDE2
:1026A00000BF04EB8401164A52F8210003F024FC19
:1026B000002004EB8401124A42F82100002004EBC0
:1026C00084010F4A02EB8101887404EB840102EB60
:1026D0008101C87404EB840102EB8101886004EB82
:1026E000840102EB8101486004EB8400114601EB98
:1026F000800012490A68C2608988018210BD00000A
:10270000B80500206574686172705F667265655F08
:10271000656E7472793A2066726565696E672065C8
:102720006E7472792025752C207061636B6574203E
:1027300071756575652025702E0A0000FCB80008CB
:102740002DE9FC4704460F461546A94600BF24B9AB
:102750005BA0FDF79FFD00BFFEE700BF00BF27B9EC
:102760005BA0FDF797FD00BFFEE700BF00BF25B9E6
:102770005AA0FDF78FFD00BFFEE700BF0E213846CF
:1027800003F076FC68B100BF58A0FDF783FD00BFE1
:1027900063484089401C624948816FF00100BDE8F0
:1027A000FC872146286801F04AFA10B1DFF87481ED
:1027B0007DE0287800F0F000E02815D101208DF8A8
:1027C000000000208DF801005E208DF8020068787E
:1027D00000F07F008DF80300A8788DF80400E878F9
:1027E0008DF80500E84661E02868A1680840D4E952
:1027F00001121140884210D0288880B24FF6A9619A
:1028000088420AD004F10C0020B1E06810B104F154
:102810000C0902E06FF00300C1E74348007800EBC9
:102820008000424901EB8000807C022818DB3E4991
:10283000097801EB81013D4A02EB8101D9F80000E2
:10284000496888420CD13648C08D401C81B234485A
:10285000C185354802783946204600F069F89EE780
:1028600000261BE006EB8600304901EB8000807CEF
:10287000022811DB06EB86012C4A02EB8101D9F814
:1028800000004968884207D127490E70F2B23946E4
:10289000204600F04DF882E7701C46B20A2EE1DBBC
:1028A0003A464946204600F09FF878E700BF434685
:1028B00004F123023946204600F030FB6FE70000A8
:1028C0006E6574696620213D204E554C4C00000019
:1028D0007120213D204E554C4C0000006970616410
:1028E000647220213D204E554C4C00006574686197
:1028F00072705F6F75747075743A20636F756C6475
:10290000206E6F7420616C6C6F6361746520726FF0
:102910006F6D20666F72206865616465722E0A00B3
:10292000B8FE0020F6B8000826000020B8050020F8
:1029300070B505460E46144600BF04EB84001D49E1
:1029400001EB8000807C022804DA1BA0FDF7A2FCCA
:1029500000BFFEE700BF04EB8400164901EB8000D6
:10296000807C022817D104EB840001EB8000C07C3E
:10297000E42810DB04EB84000A4602EB8000011D12
:10298000284600F09BFA30B9032004EB8401094A81
:1029900002EB8101887404EB8400064901EB80009E
:1029A00000F10C0305F123023146284600F0B6FA87
:1029B00070BD0000B80500206172705F7461626CC8
:1029C000655B6172705F6964785D2E7374617465B4
:1029D000203E3D204554484152505F535441544598
:1029E0005F535441424C45002DE9F05F80460F464D
:1029F000164608F123094FF0FF3A4146386801F0C6
:102A00001EF938B9387800F0F000E02802D00FB194
:102A1000386840B900BF73A0FDF73CFC00BF6FF001
:102A20000D00BDE8F09F01213846FFF747FC044642
:102A3000002C12DA00BF7BA0FDF72CFC00BF56B1C2
:102A400000BF83A0FDF726FC00BF8948808C401C96
:102A500081B2874881842046E3E704EB84008549FE
:102A600001EB8000807C30B9012004EB8401814AB5
:102A700002EB8101887400BF04EB84007D4901EB07
:102A80008000807C01280BD004EB840001EB8000E7
:102A9000807C022804DA78A0FDF7FCFB00BFFEE78B
:102AA00000BF04EB8400734901EB8000807C0128A7
:102AB00000D03EB93946404600F000FA82460EB9D1
:102AC0005046AEE700BF26B975A0FDF7E3FB00BF97
:102AD000FEE700BF04EB8400664901EB8000807CC8
:102AE00002280FDB71490C7004EB8400614901EB93
:102AF000800000F10C034A463146404600F00EFAD1
:102B000082466CE004EB84005A4901EB8000807C33
:102B1000012864D14FF0000B354613E000BF6889EF
:102B20002989884206D1286820B161A0FDF7B2FB4F
:102B300000BFFEE700BF287B012802D04FF0010B49
:102B400002E02D68002DE9D100BFBBF1000F10D0CD
:102B500029890022032002F0FDFD05466DB13146B2
:102B6000284603F087F840B1284603F0C5F9002550
:102B700003E03546284603F099FB0DB304EB8400CF
:102B80003C4951F8200068B100BF224631464F4809
:102B9000FDF780FB00BF04EB8401364A52F82100A8
:102BA00003F0AAF904EB8400324941F820504FF0B9
:102BB000000A00BF2246314645A0FDF76BFB0DE041
:102BC0002B48808C401C81B22948818400BF31464B
:102BD0004B48FDF75FFB00BF4FF0FF3A00BF504688
:102BE0001FE700006574686172705F7175657279C6
:102BF0003A2077696C6C206E6F7420616464206E7B
:102C00006F6E2D756E696361737420495020616425
:102C1000647265737320746F204152502063616346
:102C200068650A006574686172705F7175657279B4
:102C30003A20636F756C64206E6F742063726561F7
:102C400074652041525020656E7472790A0000004C
:102C50006574686172705F71756572793A20706130
:102C6000636B65742064726F707065640A000000A5
:102C7000B8FE0020B80500206172705F7461626C5C
:102C8000655B695D2E7374617465203D3D20504520
:102C90004E44494E47206F7220535441424C4500E8
:102CA0007120213D204E554C4C0000002600002094
:102CB0006E6F207061636B657420717565756573E7
:102CC00020616C6C6F77656421000000DCBA00083D
:102CD0006574686172705F71756572793A2071759B
:102CE00065756564207061636B6574202570206F65
:102CF0006E2041525020656E7472792025640A005E
:102D000090BA00082DE9F84F0746884691469A4642
:102D1000DDF828B00020009000BF27B93CA0FDF7E7
:102D2000B9FA00BFFEE700BF00222A21032002F00B
:102D300011FD054675B900BF39A0FDF7ABFA00BF1C
:102D40004548808C401C81B2434881844FF0FF305D
:102D5000BDE8F88F00BF68892A2804DA3FA0FDF794
:102D600099FA00BFFEE700BF6E6806F10E0400BFCF
:102D700047A0FDF78FFA00BF0D9801F062FFE080D9
:102D800000BF97F82200062804D04B48FDF782FACE
:102D900000BFFEE700BFDAF80000A060BAF8040048
:102DA000A0810B980168C4F812108088E082D9F8DD
:102DB00000003060B9F80400B080D8F80000C6F810
:102DC0000600B8F804007081DBF80000C4F80E00BB
:102DD0000C980068A0614FF480702080082060800B
:102DE00006202071042060714FF4C160B081294633
:102DF0003846BA69904700901748008B401C164926
:102E00000883284603F078F800250098A0E7000022
:102E10006E6574696620213D204E554C4C000000C3
:102E20006574686172705F7261773A20636F756C68
:102E300064206E6F7420616C6C6F636174652070C8
:102E400062756620666F72204152502072657175FE
:102E50006573742E0A000000B8FE00206368656385
:102E60006B20746861742066697273742070627577
:102E7000662063616E20686F6C6420737472756382
:102E800074206574686172705F686472000000008D
:102E90006574686172705F7261773A2073656E6401
:102EA000696E672072617720415250207061636BB8
:102EB00065742E0A00000000A8BC00087FB5044617
:102EC0000D4600BF09A0FDF7E5F900BF0121114A39
:102ED000201D04F123038DE8250003910E4A1946B5
:102EE0002046FFF70FFF04B070BD000065746861F5
:102EF00072705F726571756573743A2073656E6484
:102F0000696E672041525020726571756573742E29
:102F10000A000000FCB80008F6B800082DE9F041EE
:102F200004460E4617469846756800BF94F822007E
:102F3000062804D00F48FDF7ADF900BFFEE700BF3B
:102F4000D8F800002860B8F80400A8803868C5F8F0
:102F50000600B88868810820A88100BF314606A015
:102F6000FDF798F900BF31462046A2699047BDE8B9
:102F7000F0810000A8BC00086574686172705F731E
:102F8000656E645F69703A2073656E64696E672070
:102F90007061636B65742025700A000070B500BF16
:102FA0002CA0FDF777F900BF002450E004EB84006B
:102FB0002C4901EB8000857C002D46D004EB840079
:102FC00001EB8000C07C401C04EB8401254A02EB2D
:102FD0008101C87404EB8400114601EB8000C07CC1
:102FE000F0280DDA04EB840001EB8000807C0128DE
:102FF0001CD104EB840001EB8000C07C022815DBAF
:1030000000BF04EB8400174A02EB8000807C02289A
:1030100001DB15A000E016A00146224616A0FDF730
:1030200039F900BF2046FFF729FB0EE004EB8400CE
:103030000C4901EB8000807C032806D1022004EBC0
:103040008401084A02EB81018874601CC4B20A2C16
:10305000ACDB70BD6574686172705F74696D6572B8
:103060000A000000B8050020737461626C650000FE
:1030700070656E64696E67006574686172705F7414
:10308000696D65723A206578706972656420257390
:1030900020656E7472792025752E0A002DE9F043A3
:1030A00087B007460D461646984600BF97F822009F
:1030B000062804D03DA0FDF7EDF800BFFEE700BFF5
:1030C00000BF70793179F278B378CDE90332CDE978
:1030D000051070783178EA78CDE900210290AB785C
:1030E0006A7829783B48FDF7D5F800BF5DB12868BC
:1030F00048B13946286800F0A2FD20B9287800F0D0
:10310000F000E02809D100BF3348FDF7C3F800BF45
:103110006FF00D0007B0BDE8F08341462846FFF789
:10312000CDF80446002C01DA2046F3E7022004EB38
:1031300084012A4A02EB8101887404EB8400114661
:1031400001EB8000876000BF214625A0FDF7A2F8B3
:1031500000BF04EB8400214901EB80003168C160AD
:10316000B1880182002004EB84011C4A02EB81013A
:10317000C87404EB8400114651F8200098B104EBA8
:10318000840051F82090002004EB840142F82100D3
:10319000334607F1230249463846FFF7BFFE48464B
:1031A00002F0AAFE00BF0020B4E700006E6574695B
:1031B000662D3E6877616464725F6C656E203D3D8C
:1031C000204554484152505F4857414444525F4C57
:1031D000454E000060BC000820BB0008B805002078
:1031E0006574686172705F7570646174655F617247
:1031F000705F656E7472793A207570646174696E7F
:103200006720737461626C6520656E747279202525
:10321000640A00002DE9F0438BB005460E464FF0DE
:103220000E0868890E280BDC4448008D401C81B2D2
:1032300042480185C08B401C81B24048C18377E081
:103240006C6800BFA08901F0FCFC8146E07AA17A9D
:10325000627ACDE90809CDE90621207AE279A179DF
:103260006379CDE90231CDE904202079E178CDE917
:103270000010A378627821783148FDF70BF800BF81
:10328000A789207800F00100B0B12078012809D189
:10329000607888B9A0785E280ED1687B40F0100075
:1032A000687309E0062227492046FDF765F918B939
:1032B000687B40F008006873082F03D0B7F5C16F32
:1032C00025D117E096F8290000F0200000B92FE082
:1032D000C8F1000001B2284602F0CAFE28B100BFC2
:1032E00019A0FCF7D7FF00BFFEE73146284600F0E3
:1032F000DFFD18E096F8290000F0200000B917E083
:103300002A4606F123013046FEF72EFE0BE00B485D
:10331000008D401C81B209480185C08B401C81B2E0
:103320000648C18304E000BF00200BB0BDE8F08375
:10333000284602F0E1FD0020F7E70000B8FE00207B
:1033400000BC0008F6B8000843616E2774206D6F5A
:103350007665206F766572206865616465722069A4
:103360006E207061636B65740000000070B50446E8
:1033700000BF24B911A0FCF78DFF00BFFEE700BF1E
:10338000042001F08DFD054625B900BF00BF4FF0B8
:10339000FF3070BDE561652084F82A006E212B2086
:1033A00001550A4860610A48A06104F123002860C1
:1033B000204601F0C7FB0020EBE700006E65746952
:1033C0006620213D204E554C4C000000412700084E
:1033D000AD4B00082DE9F0410446E769204601F0B5
:1033E000DFFB054615B90020BDE8F0816E68B089A5
:1033F00001F027FCB0F5006F03D0A0F6060068B915
:1034000000E000BF214628462269904728B100BF4E
:1034100000BF284602F070FD002504E0284602F0B7
:103420006BFD002500BF00BF0120DDE700BF054A9E
:10343000128802F04002002AF9D0C2B2014B9A80F1
:10344000704700000010014070B505460C4622464A
:103450000321284600F074FA70BD00002DE9FE4FEC
:1034600004468A469F48B0F86200401C81B29D48DD
:10347000A0F862106668307800074FEA9068C8F1DB
:103480000001204602F0F4FD10B92089042806D27C
:1034900000BF218994A0FCF7FDFE00BF08E1606831
:1034A00090F80090606890F801B0B9F1000F03D077
:1034B000B9F1080F6FD100E0F5E0012795480078D9
:1034C00000F0F000E02800D100279249086851463A
:1034D00000F0B5FB00B100278FB900BF8EA0FCF74C
:1034E000D9FE00BF7F48B0F87400401C81B27D480F
:1034F000A0F87410204602F0FFFCBDE8FE8F00BF6C
:1035000094A0FCF7C7FE00BF2089082805D200BFA1
:1035100095A0FCF7BFFE00BFCAE0204600F00FFBFD
:1035200080B100BF99A0FCF7B5FE00BF204602F0B5
:10353000E3FC6C48B0F86800401C81B26948A0F810
:103540006810DAE72221204602F092FD002842D0DE
:103550004146204602F08CFD28B100BF98A0FCF740
:1035600099FE00BFFEE721890022022002F0F2F856
:1035700007462FB900BF9FA0FCF78CFE00BFA3E059
:1035800000BF798908F10800814205D2A3A0FCF7A9
:1035900081FE00BFFEE76FE000BF2146384602F023
:1035A00069FB28B100BFABA0FCF774FE00BFFEE7CB
:1035B0007E68C8F1000001B2384602F059FD28B11A
:1035C00000BFAEA0FCF766FE00BFFEE7204602F09B
:1035D00093FC3C460BE06FF02101204602F048FDD1
:1035E00028B100BFA5A0FCF755FE00BFFEE7656847
:1035F00048480068F060AE480068306100202870DC
:1036000068884FF6F771884203D36888093068806C
:1036100002E0688808306880FF20307200207081E6
:103620001421304600F081FA70812E48B0F8600015
:10363000401C2C49A1F860004146204602F018FDCC
:1036400028B100BF9BA0FCF725FE00BFFEE70120CC
:103650000021FF230A46CDE9010A00912D492046A9
:1036600000F09AFD07462FB100BF39469AA0FCF73B
:1036700011FE00BF00BF16E000BF5A464946A3A096
:10368000FCF708FE00BF1748B0F87000401C81B27C
:103690001448A0F87010B0F86600401C81B21148C0
:1036A000A0F8661000BF00BF204602F025FC24E70A
:1036B000204602F021FC0B48B0F86A00401C81B2A1
:1036C0000848A0F86A1018E7204602F015FC0548E3
:1036D000B0F87400401C81B20248A0F8741000BF1A
:1036E0000BE70000B8FE002069636D705F696E70C3
:1036F00075743A2073686F72742049434D502028C6
:103700002575206279746573292072656365697611
:1037100065640A00B000002069636D705F696E70B7
:1037200075743A204E6F74206563686F696E672008
:10373000746F206D756C746963617374206F72208F
:1037400062726F6164636173742070696E67730A7B
:103750000000000069636D705F696E7075743A20D7
:1037600070696E670A00000069636D705F696E7052
:1037700075743A206261642049434D502065636846
:103780006F2072656365697665640A0069636D70B0
:103790005F696E7075743A20636865636B73756DED
:1037A000206661696C656420666F7220726563656E
:1037B000697665642049434D50206563686F0A004F
:1037C00069636D705F696E7075743A206D6F7669AC
:1037D0006E6720702D3E7061796C6F616420746F2C
:1037E00020697020686561646572206661696C6536
:1037F000640A000069636D705F696E7075743A20C9
:10380000616C6C6F636174696E67206E65772070A0
:10381000627566206661696C65640A006368656349
:103820006B207468617420666972737420706275AD
:10383000662063616E20686F6C64207374727563B8
:1038400074207468652049434D5020686561646543
:103850007200000069636D705F696E7075743A2064
:10386000636F7079696E6720746F206E6577207062
:10387000627566206661696C65640A0069636D70D3
:103880005F696E7075743A20726573746F72696ED9
:1038900067206F726967696E616C20702D3E706180
:1038A000796C6F6164206661696C65640A00000070
:1038B000AC00002043616E2774206D6F7665206F29
:1038C0007665722068656164657220696E2070613A
:1038D000636B65740000000069636D705F696E70F2
:1038E00075743A2069705F6F75747075745F69667E
:1038F0002072657475726E656420616E20657272E7
:103900006F723A2025632E0A0000000069636D7013
:103910005F696E7075743A2049434D502074797018
:103920006520256420636F6465202564206E6F74B4
:1039300020737570706F727465642E0A0000000049
:103940002DE9FE43074688469146002224210120A6
:1039500001F000FF064636B900BF47A0FCF79AFC0D
:1039600000BFBDE8FE8300BF7089242804D252A0A6
:10397000FCF790FC00BFFEE700BF7C6800BF59A0C9
:10398000FCF788FC00BF00BF04F10C0008B1E07B2D
:1039900000E00020009004F10C0008B1A07B00E0E2
:1039A0000020034604F10C0008B1607B00E0002019
:1039B000024604F10C0008B1207B00E00020014623
:1039C0004FA0FCF767FC00BF00BF50A0FCF762FCF3
:1039D00000BF00BF04F1100008B1E07C00E000204F
:1039E000009004F1100008B1A07C00E00020034624
:1039F00004F1100008B1607C00E00020024604F1F0
:103A0000100008B1207C00E0002001463CA0FCF73B
:103A100041FC00BF00BF27A0FCF73CFC00BF75685D
:103A200085F8008085F801900020A880E8807968FA
:103A3000726802F108001C22FCF7CAFD00206880B1
:103A40007189284600F071F868803248B0F860004B
:103A5000401C3049A1F86000E0680290012000217C
:103A6000FF2302AACDE90010304600F05FFB30468C
:103A700002F042FA00BF74E769636D705F74696DAC
:103A8000655F65786365656465643A206661696C45
:103A9000656420746F20616C6C6F63617465207065
:103AA00062756620666F722049434D5020706163D5
:103AB0006B65742E0A000000636865636B20746890
:103AC0006174206669727374207062756620636128
:103AD0006E20686F6C642069636D70206D65737310
:103AE0006167650069636D705F74696D655F6578B6
:103AF0006365656465642066726F6D200000000078
:103B000025752E25752E25752E25750020746F20A0
:103B100000000000B8FE002070B505460C462246A5
:103B20000B212846FFF70CFF70BD70B504460D460B
:103B30002946204601F0A7F8C04380B270BD2DE9A8
:103B4000F041064600240027354617E06989686879
:103B500001F099F80444A0B200EB1444688900EB2A
:103B6000D0714910A0EB410139B1C7F10100C7B2D2
:103B7000E0B2C4F3072141EA00242D68002DE5D10D
:103B800027B1E0B2C4F3072141EA0024E04380B248
:103B9000BDE8F0812DE9F05F0746884691469A46D8
:103BA0000024A3463D461AE000BF00BF698968684B
:103BB00001F069F80444A0B200EB1444688900EBFA
:103BC000D0714910A0EB410141B1CBF1010000F0EF
:103BD000FF0BE0B2C4F3072141EA00242D68002D59
:103BE000E2D1BBF1000F04D0E0B2C4F3072141EAF7
:103BF0000024D8F80060B0B204444FF6FF7000EA29
:103C000016400444D9F80060B0B204444FF6FF7087
:103C100000EA16400444504601F013F804440A98A0
:103C200001F00FF80444A0B200EB1444A0B200EB82
:103C3000144400BF00BFE04380B2BDE8F09F18B558
:103C400002460092D04300B10AB9012018BD91F894
:103C5000290000F0020008B90020F7E74868904208
:103C600001D10020F2E700988B681840D1E90134B7
:103C70002340984208D1886822EA00008C68E34318
:103C8000984201D10120E1E70020DFE72DE9F74F5D
:103C90008CB004468946B9F820000890142004909E
:103CA0004FF0000860680B900B9EF08800F0E5FF75
:103CB00003900398C0F30C000790039800F40050A1
:103CC00006902089143880B209900899A1F1140057
:103CD000C11700EB5171C1F3CF010A91B1E008980F
:103CE00014380999884201DB012000E0002005908A
:103CF0000798C0F30C00069908430390059818B97B
:103D0000039840F400500390059808B1099801E029
:103D10000A98C0001FFA80FB00221421022001F043
:103D200019FD054625B94FF0FF300FB0BDE8F08F03
:103D300000BF6089142804DA45A0FCF7ABFA00BF85
:103D4000FEE700BF142268680B99FCF741FC6E681F
:103D5000616804980844606061890498081A608169
:103D6000CDF808B03FE061890298814201DD0298F8
:103D700000E060898046B8F1000F01D1246832E08C
:103D800000F07AF807462FB9284602F0B5F84FF050
:103D9000FF30CAE760683B4602224146CDE9000891
:103DA000032001F09BFE8246BAF1000F08D138468D
:103DB00000F068F8284602F09FF84FF0FF30B4E7B3
:103DC000204602F073FA7C61294838615146284642
:103DD00001F0DAFE0298A0EB080080B2029002988F
:103DE00000B1246800BF02980028BCD1CDF8108033
:103DF000039800F026FFF0800BF1140188B200F068
:103E000020FF70800020708114213046FFF78DFE66
:103E10007081D9F81430294648460E9A98471548BB
:103E2000008E401C13490886284602F065F8099860
:103E3000A0EB0B0080B209900A990798084480B261
:103E40000790099800287FF44AAF00BF6DE7000093
:103E500074686973206E6565647320612070627593
:103E60006620696E206F6E6520706965636521004C
:103E7000F14A0008B8FE002010B5062001F0A2FAB1
:103E800010BD000010B5044600BF24B905A0FCF722
:103E900001FA00BFFEE700BF2146062001F012FA3A
:103EA00010BD00007020213D204E554C4C000000FC
:103EB0002DE9F047064689469648B0F84A00401C6E
:103EC00081B29448A0F84A10756828780421B1EBB3
:103ED000201F16D000BF00BF304602F00DF88D48FD
:103EE000B0F85C00401C81B28A48A0F85C10B0F8C1
:103EF0004E00401C81B28748A0F84E100020BDE85B
:103F0000F087287800F00F074FF6FF7000EA870768
:103F1000688800F0B2FE80467089B84202DB3089C2
:103F200040451DDA7089B84201DA00BF00BF308910
:103F3000404501DA00BF00BF304601F0DDFF7548A3
:103F4000B0F85200401C81B27248A0F85210B0F88C
:103F50004E00401C81B26F48A0F84E100020CEE702
:103F600039462846FFF7E1FDA8B100BF00BF304643
:103F700001F0C2FF6748B0F85000401C81B26548AC
:103F8000A0F85010B0F84E00401C81B26148A0F873
:103F90004E100020B3E74146304602F0E1F82869B0
:103FA0005D490860E8685D4908604FF0010A4C46C9
:103FB00000BF00BF00BF94F8290000F0010088B1E5
:103FC000201D78B1606868B1534800686168884214
:103FD00005D0514908682146FFF731FE10B100BFF6
:103FE00000BF0DE0BAF1000F04D04FF0000A4C48BA
:103FF000046800E024684C4500D12468002CD8D126
:1040000000BF464908684946FFF719FE28B94348EA
:10401000007800F0F000E0280ED100BF00BF30466D
:1040200001F06AFF3B48B0F84E00401C81B23948AD
:10403000A0F84E10002062E734B900BF00BF304640
:1040400001F05AFF00205AE7E8884FF63F71084018
:1040500048B100BF00BF304600F068F906460EB90F
:1040600000204CE7756800BF00BF00BF00BF2D48AF
:10407000C0F800902C4805604946304602F0CEF961
:10408000E0BB687A01280DD0062806D011280ED191
:104090004946304605F006FF2FE04946304602F01B
:1040A000D3FE2AE049463046FFF7D8F925E01A4901
:1040B00008684946FFF7C3FD50B91748007800F07B
:1040C000F000E02804D0756002213046FFF7BCF90B
:1040D000304601F011FF00BF00BF0E48B0F8580095
:1040E000401C81B20B48A0F85810B0F84E00401C9C
:1040F00081B20848A0F84E1000BF00BF0020094957
:10410000086009490860054908600349086000BF64
:10411000F5E60000B8FE0020B0000020AC00002052
:104120003C000020A4000020A80000202DE9FE4F44
:1041300005460F4616469846DDE90C9A00BFE88909
:10414000012804D010A0FCF7A5F800BFFEE700BFCF
:10415000304600F097FC04000CD100BF00BF0D48B2
:10416000B0F85600401C81B20A48A0F85610201F33
:10417000BDE8FE8F4346324639462846CDE9009ACF
:10418000029400F009F8F3E7702D3E726566203D59
:104190003D203100B8FE00202DE9F84F0646884644
:1041A00091469A460C9F002500BFF089012804D053
:1041B0004DA0FCF76FF800BFFEE700BFB9F1000F9C
:1041C00070D04FF0140B1421304601F051FF68B14C
:1041D00000BF00BF4748B0F85C00401C81B24548B2
:1041E000A0F85C106FF00100BDE8F88F746800BFA4
:1041F0007089142804D240A0FCF74CF800BFFEE7F9
:1042000000BF84F808A00B9860720B984AEA00205F
:104210000544D9F800002061208A80B20544206955
:1042200005EB104558464FEAEB710BEB9171C1F36A
:10423000870141F0400121700A98607021780A9846
:1042400041EA00200544308900F0FBFC6080608872
:1042500005440020E0803448008800F0F2FCA08093
:10426000A088054430480088401C2F490880B8F1D8
:10427000000F02D0D8F8000010B97868E06002E0C2
:10428000D8F80000E060A08980B20544E06805EB42
:104290001045A8B200EB154505EB1545ED436581CA
:1042A00004E0FFE7746820690090E9461148B0F81F
:1042B0004800401C0F49A1F8480000BF00BF388CDF
:1042C00048B13089398C884205DD4A463946304646
:1042D000FFF7DCFC88E700BF00BF4A46314638469E
:1042E0007B69984780E70000702D3E726566203D2F
:1042F0003D203100B8FE0020636865636B20746860
:1043000061742066697273742070627566206361DF
:104310006E20686F6C6420737472756374206970AA
:104320005F68647200000000B40000202DE9F84FBF
:104330008046002000907548408E401C81B2734832
:104340004186D8F80450287800F00F001421B1EB12
:10435000800F0AD000BF00BF6C48B0F84400401C7A
:1043600081B26A48A0F84410C2E0E88800F085FCF9
:10437000C0F30C004FF6FF7101EAC00A688800F034
:104380007CFC297801F00F01A0EB81001FFA80FB73
:10439000404601F065FC06465D48018888190A28F8
:1043A00012DD3146284600F001FB20B15848008854
:1043B00030440A2808DD00BF00BF5448808F401CED
:1043C00081B25248818793E0524804681CE06069DA
:1043D000E968884209D1A0692969884205D1A08984
:1043E000A988884201D1012000E0002050B100BF1F
:1043F00000BF4648B0F84600401C81B24348A0F8D0
:10440000461003E000942468002CE0D100BF34B9CA
:104410003146284600F0ECF9044694B968E0E88893
:1044200000F02BFCC0F30C0058B9E08900F025FC2B
:10443000C0F30C0028B11422294604F10800FCF74F
:10444000C7F833480088304431490880A87900F023
:10445000200040B9A07F40F00100A0770AEB0B00DC
:10446000A08300BF00BF4146204600F055F8D0B3FE
:10447000A08B1430A0836068406807686068456856
:10448000142204F108012846FCF7A2F8A08B00F0E2
:10449000D8FB68800020E880688114212846FFF757
:1044A00044FB6881D4F804800CE0D7F804906FF0E6
:1044B0001301384601F0DCFD3946404601F064FB4B
:1044C000D9F80070002FF0D12046009900F066F96D
:1044D000404601F0C5FB0E490988081A0C490880BE
:1044E0004046BDE8F88FFFE700BF00BF0020F8E7B7
:1044F00000BF00BF0548C08E401C81B20348C18682
:10450000404601F0F9FC0020EBE70000B8FE002077
:10451000BC000020B80000202DE9FC5F06460F46D5
:1045200000254FF0010BD7F804A0BAF8020000F004
:10453000A4FB9AF8001001F00F01A0EB810080B2FB
:104540000090BAF8060000F098FBC0F30C004FF69C
:10455000FF7101EAC000019000BF00BF7C6800202D
:1045600020600198A080DDE900100844E080D6F8C2
:1045700004902EE0D9F80480A088B8F8041088428E
:1045800010DAC4F800905DB1A088E988884204DBA5
:10459000E088B8F80410884200DD92E02F6000E067
:1045A000776019E0A088B8F80410884200D188E04C
:1045B000A088B8F80610884200DA82E035B1E888B1
:1045C000B8F80410884201D04FF0000BD8F80090E2
:1045D0004546B9F1000FCDD100BFB9F1000F1DD193
:1045E00095B100BFE888A188884204DD3BA0FBF7B5
:1045F00051FE00BFFEE700BF2F60E888A188884217
:104600000CD04FF0000B09E000BF706820B13BA058
:10461000FBF740FE00BFFEE700BF7760B07F00F011
:10462000010000284BD0BBF1000F45D070684068F6
:10463000808810B14FF0000B3EE02546D4F8009082
:104640000BE0D9F80440E888A188884202D04FF0F6
:10465000000B05E02546D4F80090B9F1000FF0D129
:1046600000BFBBF1000F27D000BF706820B931A098
:10467000FBF710FE00BFFEE700BF00BF7068406898
:10468000A04204D12BA0FBF705FE00BFFEE700BF50
:1046900000BF206820B12BA0FBF7FCFD00BFFEE7A8
:1046A00000BF00BFE088B18B884204D02EA0FBF78A
:1046B000F1FD00BFFEE700BF5846BDE8FC9F0020AB
:1046C000FBE7384601F0CCFA33490988081A324929
:1046D0000880384601F010FC0020EEE7636865634F
:1046E0006B20667261676D656E747320646F6E27F0
:1046F00074206F7665726C61700000006E6F2070C0
:10470000726576696F757320667261676D656E7428
:104710002C2074686973206D757374206265207431
:10472000686520666972737420667261676D656E74
:104730007421000073616E69747920636865636B2E
:104740000000000076616C69646174655F64617487
:10475000616772616D3A6E6578745F70627566212B
:104760003D4E554C4C00000076616C696461746587
:104770005F646174616772616D3A646174616772EC
:10478000616D20656E64213D646174616772616D65
:10479000206C656E00000000BC00002070B504466F
:1047A0000D460B480068A04203D109492068086003
:1047B00009E000BF25B907A0FBF76CFD00BFFEE7CD
:1047C00000BF206828602146052000F07BFD70BDF9
:1047D000B800002073616E69747920636865636B4B
:1047E000206C696E6B6564206C6973740000000056
:1047F00070B505460E46052000F0E4FD0446A4B958
:104800003146284600F0D2F8B04203DB052000F024
:10481000D9FD04464CB90E48808F401C81B20C482B
:10482000818700BF00BF002070BD20212046FBF71C
:1048300068FF0320E07707480068206005480460AF
:104840001422294604F10800FBF7C2FE2046EBE7DC
:10485000B8FE0020B80000202DE9F0470446884645
:10486000002500BFA04504D138A0FBF713FD00BF11
:10487000FEE700BFB8F1000F0AD000BFD8F8000073
:10488000A04204D034A0FBF705FD00BFFEE700BF47
:104890006068D0F80490B9F8040008BB6768D9F8DC
:1048A00000006060142204F108017868FBF790FEB4
:1048B00001213846FFF730F9384601F0D1F90646B4
:1048C00000BFA819B0F5803F04DB28A0FBF7E2FC8D
:1048D00000BFFEE700BFA81985B2384601F00CFB07
:1048E000676819E0D7F80490BA46D9F800705046C6
:1048F00001F0B6F9064600BFA819B0F5803F04DB09
:104900001AA0FBF7C7FC00BFFEE700BFA81985B2DD
:10491000504601F0F1FA00BF002FE3D14146204696
:10492000FFF73CFF00BF19480088A84204DA18A02E
:10493000FBF7B0FC00BFFEE700BF14480088401B37
:10494000124908802846BDE8F0870000707265763D
:1049500020213D2069707200707265762D3E6E6573
:104960007874203D3D2069707200000070627566A9
:10497000735F6672656564202B20636C656E203CF6
:104980003D2030786666666600000000BC000020AE
:1049900069705F72656173735F70627566636F756E
:1049A0006E74203E3D20636C656E00002DE9F05F63
:1049B00005468946002700BF0026B346B24619487F
:1049C00004681DE06069E968884207D1A069296927
:1049D000884203D1A089A988884201D0012000E043
:1049E000002048B10AF1010A0EB9264604E0E07F32
:1049F000F17F884200DC2646206800B1A346246887
:104A0000002CDFD12EB159463046FFF725FF8046F6
:104A100047444F4502DABAF1010FCDDC3846BDE814
:104A2000F09F0000B800002010B5044600BF00BF92
:104A300000F00AF8002203494FF47A7001F08AFD71
:104A400010BD0000294A000870B500260C48046813
:104A500013E0E07F002807DDE07F401EE07700BF25
:104A600000BF2646246808E000BF00BF2546246832
:104A700031462846FFF7F0FE00BF002CE9D170BD9B
:104A8000B800002010B50246164801680FE091F802
:104A9000290000F0010048B110688B681840D1E986
:104AA00001342340984201D1084610BD096800290D
:104AB000EDD10D48006830B10B48006890F829002E
:104AC00000F0010058B900BF00BF0848B0F8560018
:104AD000401C83B20548A0F856300020E5E70248A4
:104AE0000068E2E73C00002040000020B8FE002003
:104AF00070B505462C4600BF24B90CA0FBF7CAFBD5
:104B000000BFFEE700BF00BFAC4204D00AA0FBF725
:104B1000C1FB00BFFEE700BF606910B1606901F032
:104B2000EBF92046FFF7AEF970BD0000706372200C
:104B3000213D204E554C4C00706372203D3D20704D
:104B40000000000070B50446E569062084F82200E4
:104B5000124800F0A9FC1148007884F823000F489F
:104B60004178242001550D488178252001550B48B6
:104B7000C1782620015509480179272001550748A9
:104B800041792820015540F2DC502084322084F8FD
:104B900029000248FCF776FF70BD000027000020C6
:104BA00010B50446204600F0A3FD10BD70B50546C3
:104BB0000C46204600F06EFD70BD000000F00AF8C3
:104BC00005E001F085FC10210148FBF76CFFF8E7D8
:104BD0000004024000B587B000F039F80D48049099
:104BE0006FF07F4005900C4806900C480C4900225D
:104BF00004ABCDE90021029005AA06A9094800F0FE
:104C000063FC084800F0D0FC064800F027FD07B020
:104C100000BD0000C0A80C01C0A80C0E1532000891
:104C20006D330008C00000200146080601F47F42F1
:104C300040EA022001F47F0240EA122040EA1160BB
:104C4000704701460806000C40EA1120704710B575
:104C500001F01EFC00F0F0F800F06CFB00F08EFCA0
:104C600005F01EF902F0EEF801F0E8FC10BD00B509
:104C700003461846FFF7D8FF00BD00B502461046B0
:104C8000FFF7DFFF00BDF8B505460A462B460020BA
:104C90000090002103F0010636B1002A04DD13F86C
:104CA000010B8DF80100521E1C4603E034F8027B14
:104CB0003944921E012AF9DC002A02DD20788DF8A1
:104CC0000000BDF80000014488B200EB114188B239
:104CD00000EB114126B1C8B2C1F3072747EA002112
:104CE00088B2F8BD10B5A820FCF746FE4FF4E130BD
:104CF00005F080F8FBF7B0FF532140F2CF70FCF7CE
:104D00004BFCFCF75FF8102304A200210846FCF7D7
:104D1000A5F9FFF753FF002010BD000020204C77BD
:104D200049502044454D4F0070B5054615B900BFA8
:104D300000BF70BD00BF05F0030020B126A0FBF747
:104D4000A9FA00BFFEE700BF00BF2C4800688542FB
:104D500003D32B480068854204D32AA0FBF79AFAB4
:104D600000BFFEE700BF25480068854203D3244802
:104D7000006885420AD300BF00BF2848B0F8B400DD
:104D8000401C81B22548A0F8B410D2E7A5F1080470
:104D900000BF207920B922A0FBF77CFA00BFFEE714
:104DA00000BF0020207123480068844201D22148BE
:104DB0000460208811490988611A411A1748B0F81F
:104DC000AE00401A81B21548A0F8AE10204601F09E
:104DD00073FA00BFADE700006D656D5F66726565D3
:104DE0003A2073616E69747920636865636B206132
:104DF0006C69676E6D656E74000000003000002005
:104E0000340000206D656D5F667265653A206C65E3
:104E100067616C206D656D6F72790000B8FE0020CF
:104E20006D656D5F667265653A206D656D2D3E75C9
:104E3000736564003800002000BF00BF134921F0F3
:104E40000301134A1160114608684FF420410180A4
:104E50000021418001711146096801F520410D4A88
:104E600011600121126811714FF42041094A126842
:104E70001180084A1268518005490968064A116084
:104E80004FF420420549A1F8AC2070473B120020A6
:104E9000300000203400002038000020B8FE002040
:104EA0002DE9F047054615B90020BDE8F087E81C5C
:104EB00020F0030085B20C2D00DA0C25B5F5204F4B
:104EC00001DD0020F1E76748008867490988401A3A
:104ED00086B2B5E0644800688419207900287DD145
:104EE000218806F10800081AA84277D3218806F124
:104EF0000800091A05F11400814232D306F10800B6
:104F000028441FFA80F85848006800EB0807002082
:104F10003871208838807E80A4F8008001202071BC
:104F20003888B0F5204F05D038884F4909680844C3
:104F3000A0F8028000BF4D48B0F8AE1005F108009F
:104F4000084481B24948A0F8AE10B0F8B010B0F8EB
:104F5000AE00814204DA4548B0F8AE10A0F8B010B7
:104F60001BE00120207100BF20883F490988611A99
:104F7000411A3E48B0F8AE00084481B23B48A0F860
:104F8000AE10B0F8B010B0F8AE00814204DA374885
:104F9000B0F8AE10A0F8B01000BF324800688442EC
:104FA00026D13048D0F8009005E0B9F800002E492D
:104FB000096800EB010999F8040018B12C48006851
:104FC0008145F2D12748C0F8009000BF0068284909
:104FD000096888420AD02348006800E02DE0007983
:104FE00020B124A0FBF756F900BFFEE700BF00BFC9
:104FF00000BF04F1080028441D490968884204D90B
:1050000023A0FBF747F900BFFEE700BF00BF04F095
:10501000030020B12AA0FBF73DF900BFFEE700BF67
:1050200000BF04F0030020B131A0FBF733F900BF4B
:10503000FEE700BF04F1080037E70B480068865B15
:10504000C5F52040B0423FF745AF00BF00BF07485D
:10505000B0F8B200401C81B20448A0F8B2100020A1
:1050600023E700003800002030000020B8FE0020B8
:10507000340000206D656D5F6D616C6C6F633A206C
:10508000216C667265652D3E7573656400000000D5
:105090006D656D5F6D616C6C6F633A20616C6C6FF8
:1050A0006361746564206D656D6F7279206E6F74D5
:1050B0002061626F76652072616D5F656E642E009F
:1050C0006D656D5F6D616C6C6F633A20616C6C6FC8
:1050D0006361746564206D656D6F72792070726FA5
:1050E0007065726C7920616C69676E65642E000072
:1050F0006D656D5F6D616C6C6F633A2073616E6995
:10510000747920636865636B20616C69676E6D6597
:105110006E7400002DE9F04781460D46E81C20F032
:10512000030085B20C2D00DA0C25B5F5204F02DD09
:105130000020BDE8F08700BF50480068814503D3D8
:105140004F480068814504D34EA0FBF7A3F800BF89
:10515000FEE700BF49480068814503D3484800681E
:1051600081450BD300BF00BF4C48B0F8B400401CD1
:1051700081B24A48A0F8B4104846DAE7A9F1080815
:105180003E480088A8EB00001FFA80FAB8F800003B
:10519000A0EB0A00083887B200BFBD4204DD40A082
:1051A000FBF778F800BFFEE700BFBD4201DD00203D
:1051B000BFE7BD4201D14846BBE7B8F800002F4920
:1051C00009684418207950BB20880AF10801294455
:1051D0008EB23B490968A14204D12849096831448B
:1051E000374A1160254909688C19002121712080F6
:1051F000A4F802A0A8F800602188B1F5204F04D0DF
:1052000021881E4A126811444E802449B1F8AE101C
:105210007A1B891A8AB22149A1F8AE202BE005F148
:105220001400B84227D80AF10800284486B213486F
:105230000068841922480068844201D22048046032
:1052400000202071B8F800002080A4F802A0A8F87F
:1052500000602088B0F5204F04D0208807490968F5
:10526000084446800D48B0F8AE00791B401A81B260
:105270000A48A0F8AE1048465BE700003000002066
:10528000340000206D656D5F7472696D3A206C6545
:1052900067616C206D656D6F72790000B8FE00204B
:1052A0006D656D5F7472696D2063616E206F6E6CE9
:1052B0007920736872696E6B206D656D6F7279000D
:1052C0003800002070B504460D4605B970BD00BF1A
:1052D00005F0030020B10DA0FAF7DCFF00BFFEE7E8
:1052E00000BF2E46114800EB0410C088401E81B25A
:1052F0000E4800EB0410C1800D4850F824003060C7
:105300000B4840F8246000BFE0E700006D656D7059
:105310005F667265653A206D656D2070726F7065AD
:10532000726C7920616C69676E65640070FF0020A3
:105330004CB2002010B5002015E000241C4B03EBFC
:105340000013DC801A4B03EB00131C81184B03EB9A
:1053500000135C81174B33F81040154B03EB00131F
:105360009C80431C98B20A28E7DB134B23F003010F
:10537000002019E00023114C44F8203000220CE0FA
:105380000E4B53F820300B600C4B43F820100C4BA5
:1053900033F810301944531C9AB2064B33F81030CE
:1053A0009342EDDC431C98B20A28E3DB10BD0000F9
:1053B00070FF002016B9000877B200204CB2002020
:1053C00002B9000870B5044600BF0A2C04DB23A014
:1053D000FAF760FF002070BD00BF284850F8245045
:1053E000002D2CD02549286841F8240000BF24480E
:1053F00000EB0410C088401C81B2214800EB04106F
:10540000C1801F4800EB041001891D4800EB041007
:10541000C088814207DA1A4800EB0410C188184896
:1054200000EB0410018100BF00BF05F0030020B1B4
:1054300014A0FAF72FFF00BFFEE700BF0BE000BF8C
:1054400000BF0F4800EB04104089401C81B20C489B
:1054500000EB041041812846BDE700006D656D70CA
:105460005F6D616C6C6F633A2074797065203C20CD
:105470004D454D505F4D4158000000004CB200209A
:1054800070FF00206D656D705F6D616C6C6F633ACD
:10549000206D656D702070726F7065726C7920611F
:1054A0006C69676E65640000064A1168022202702A
:1054B0000022427082700A0CC2700A0A02714171A5
:1054C00070470000107AFF1F2DE9F04704460E4692
:1054D00017469846DDE9095ADDF8209000BF25B946
:1054E0001EA0FAF7D7FE00BFFEE700BF00206060F5
:1054F000A060E06084F82900C4F81C901D48007882
:1055000084F82C001B480078401C1A490870C4F825
:1055100010A043463A463146204600F030F8204677
:10552000A84710B10020BDE8F08713480068844206
:1055300004D01148006820600F48046000BF00BF1D
:1055400000BF00BF00BF00BF00BF00BF00BF00BF63
:1055500000BF00BF00BF00BF2046E4E74E6F2069D8
:105560006E69742066756E6374696F6E2067697604
:10557000656E0000440000203C00002070472DE9CB
:10558000F04106460F4614461D463946304600F0A7
:105590001BF82146304600F059F82946304600F005
:1055A0000BF8BDE8F08100000249086000BF00BFB1
:1055B000704700004000002009B9002200E00A689E
:1055C000C26000BF00BF70472DE9F04107460C469E
:1055D000002C2ED020687968884201D1012000E09B
:1055E000002030BB00BF00BF164806680DE03068E1
:1055F0007968884208D1D6F80C8000BF00BF3046D9
:1056000001F0A8F8464600E0F668002EEFD10E48FB
:1056100005680CE055B1286840B12868796888426F
:1056200004D10CB9002000E020682860ED68002D4E
:10563000F0D10CB9002000E02068786000BF00BF06
:10564000BDE8F0815C0000205800002009B900226C
:1056500000E00A68826000BF00BF704710B50446D2
:1056600094F8290000F0010090B914F8290F40F0D7
:105670000100207014F8290900F0100040B194F8DE
:10568000290000F0200018B1211D2046FDF716FC6E
:1056900010BD000070B5064600250024354614E014
:1056A0006A89124B18196968FAF792FF68890444ED
:1056B00040F2DC50844202D83089A04204D200BFBC
:1056C00000BF6FF0010070BD2D68002DE8D130895A
:1056D000A04205D105492046FCF7FCFA0020F2E77C
:1056E00000BF00BF6FF00100EDE700008006002062
:1056F0002DE9F041804600250024002600271449AA
:1057000040F2DC50FCF786FA064616B90020BDE8E8
:10571000F081B1B20022032000F01CF805461DB94B
:1057200000BF00BF0020F2E72C460BE06289084B67
:10573000D9196068FAF74CFF608907442468B742BA
:1057400000D901E0002CF1D100BF2846DFE70000BE
:105750005C0C00202DE9F05F83460F46914600BFA8
:1057600000BFBBF1000F09D0BBF1010F08D0BBF1A6
:10577000020F07D0BBF1030F08D105E036260BE07E
:10578000222609E00E2607E0002605E000BF83A0E0
:10579000FAF780FD00BFFEE700BFB9F1000F76D039
:1057A000B9F1010F74D0B9F1020F72D0B9F1030F42
:1057B00070D10920FFF706FE044600BF00BF24B9E0
:1057C00000F0C8FC0020BDE8F09F84F80C90002099
:1057D000206006F110002044C01C20F0030060602F
:1057E00000BF207900F0030020B173A0FAF752FD4A
:1057F00000BFFEE700BF2781F01C20F00300C0F5CA
:105800008460B84201DD384604E0F01C20F003005B
:10581000C0F58460608100BF61896068014404F55F
:105820008660814204D970A0FAF734FD00BFFEE71C
:1058300000BF00BFF01C20F00300C0F5846000280A
:1058400004DC76A0FAF726FD00BFFEE700BF0120CA
:10585000E081A2466089A7EB000851E00920FFF72C
:10586000B1FD054635B900F075FC204600F044FB5B
:105870000020A8E785F80C90002068732860CAF81B
:10588000005000BF4FF6FF70804509DB03E03BE0AE
:1058900062E062E072E06EA0FAF7FCFC00BFFEE797
:1058A00000BFA5F808801FFA88F0B0F5846F02DA0F
:1058B0001FFA88F001E04FF48460688105F1100060
:1058C000686000BF287900F0030020B165A0FAF7F6
:1058D000E1FC00BFFEE700BF00BF618960680144D2
:1058E00004F58660814204D93FA0FAF7D3FC00BFDB
:1058F000FEE700BF0120E8816889A8EB0008AA46FE
:10590000B8F1000FAADC3FE006F1130121F0030219
:10591000F91C21F00301114488B2FFF7C1FA0446D3
:105920000CB900204FE704F110003044C01C20F0F7
:1059300003006060278167810020206084F80C905C
:1059400000BF207900F0030020B152A0FAF7A2FCBA
:1059500000BFFEE700BF17E000BF0820FFF732FDE1
:1059600004461CB900BF00BF00202CE70020606087
:1059700027816781206084F80C9005E000BF50A06B
:10598000FAF788FC00BFFEE700BF0120E08100209D
:10599000607300BF00BF204615E7000070627566A7
:1059A0005F616C6C6F633A2062616420706275663F
:1059B000206C617965720000706275665F616C6C65
:1059C0006F633A207062756620702D3E7061796C4D
:1059D0006F61642070726F7065726C7920616C69A0
:1059E000676E656400000000636865636B20702D5E
:1059F0003E7061796C6F6164202B20702D3E6C6568
:105A00006E20646F6573206E6F74206F76657266AA
:105A10006C6F77207062756600000000504255463A
:105A20005F504F4F4C5F42554653495A45206D7564
:105A300073742062652062696767657220746861AB
:105A40006E204D454D5F414C49474E4D454E5400EB
:105A500072656D5F6C656E203C206D61785F75319D
:105A6000365F7400706275665F616C6C6F633A20BC
:105A70007062756620712D3E7061796C6F61642073
:105A800070726F7065726C7920616C69676E6564A5
:105A900000000000706275665F616C6C6F633A2095
:105AA000706275662D3E7061796C6F6164207072F2
:105AB0006F7065726C7920616C69676E6564000057
:105AC000706275665F616C6C6F633A206572726FAD
:105AD0006E656F7573207479706500002DE9F0476D
