:020000040800F2
:10000000580700202902000811040008B103000865
:100010000D040008D1020008E30A000800000000F7
:100020000000000000000000000000004107000880
:10003000D5020008000000008D04000859080008DF
:10004000430200084302000843020008430200087C
:10005000430200084302000843020008430200086C
:10006000430200084302000843020008430200085C
:10007000430200084302000843020008430200084C
:10008000430200084302000843020008430200083C
:10009000430200084302000843020008430200082C
:1000A000430200084302000843020008430200081C
:1000B000430200084302000843020008430200080C
:1000C00043020008430200084302000843020008FC
:1000D00043020008C5080008430200084302000864
:1000E00043020008430200084302000843020008DC
:1000F00043020008430200084302000843020008CC
:1001000043020008430200084302000843020008BB
:1001100043020008430200084302000843020008AB
:10012000430200084302000843020008430200089B
:10013000430200084302000843020008430200088B
:10014000430200084302000843020008430200087B
:10015000430200084302000843020008430200086B
:10016000430200084302000843020008430200085B
:10017000430200084302000843020008430200084B
:10018000430200084302000800F002F800F03CF8C7
:100190000AA090E8000C82448344AAF10107DA45E2
:1001A00001D100F031F8AFF2090EBAE80F0013F0F8
:1001B000010F18BFFB1A43F001031847240E00007B
:1001C000440E0000103A24BF78C878C1FAD852070C
:1001D00024BF30C830C144BF04680C6070470000C1
:1001E0000023002400250026103A28BF78C1FBD840
:1001F000520728BF30C148BF0B6070471FB500F0E1
:10020000E9FE1FBD10B510BD00F033F81146FFF731
:10021000F5FF00F05DFE00F051F803B4FFF7F2FFC8
:1002200003BC00F060FC0000094880470948004713
:10023000FEE7FEE7FEE7FEE7FEE7FEE7FEE7FEE796
:10024000FEE7FEE704480549054A064B70470000F3
:100250005D080008890100085801002058070020A7
:1002600058030020580300207047704770477047BC
:100270007047754600F028F8AE46050069465346BB
:1002800020F00700854618B020B5FFF7DBFFBDE87A
:1002900020404FF000064FF000074FF000084FF0ED
:1002A000000B21F00701AC46ACE8C009ACE8C0097E
:1002B000ACE8C009ACE8C0098D4670470446AFF30E
:1002C00000802046FFF7A9FF00487047F400002097
:1002D00000BFFEE77047F0B50A4600210023002466
:1002E00000BF3DE0012505FA01F3156805EA0304A6
:1002F0009C4234D105684F000326BE40B5430560DB
:1003000015794E00B5400668354305601579012D15
:1003100002D01579022D16D185684F000326BE4004
:10032000B543856055794E00B54086683543856094
:10033000456801268E40B5434560456896798E40F4
:10034000B6B235434560C5684F000326BE40B5438D
:10035000C560D5794E00B540C6683543C560491CB7
:100360001029BFD3F0BDF0B5002300244D07ED0EDA
:1003700002FA05F3CE1000F1200555F826504E077D
:10038000F70E0F26BE40B543CF1000F1200646F809
:100390002750CE1000F1200555F8265045EA0304F9
:1003A000CE1000F1200545F82640F0BD418370478E
:1003B00000BFFEE71CB50121032000F069F84FF4EF
:1003C0000040009001208DF8040000208DF8060008
:1003D00003208DF8050001208DF8070069460948C3
:1003E000FFF779FF1020009069460748FFF773FF79
:1003F0004FF460410348FFF7D9FF10210248FFF78F
:10040000D5FF1CBD000002400004024000BFFEE713
:100410007047000070B5002100230F22C4781CB380
:10042000174C246804F4E064C4F5E064C4F30721C5
:10043000C1F10404E3B20A4144789C40E1B28478FB
:10044000144021430C07210E0E4C057861550478A9
:1004500004F01F050124AC4005786D11AD0005F1D5
:10046000E025C5F8004109E0047804F01F050124E7
:10047000AC40054D0678761145F8264070BD000069
:100480000CED00E000E400E080E100E070470000D7
:1004900029B1064A12680243044B1A6004E0034A79
:1004A00012688243014B1A607047000030380240E6
:1004B00029B1064A12680243044B1A6004E0034A59
:1004C00012688243014B1A607047000044380240B2
:1004D00029B1064A12680243044B1A6004E0034A39
:1004E00012688243014B1A607047000024380240B2
:1004F000F0B5002100220024022500260223324FFD
:100500003F6807F00C0121B1042905D0082937D133
:1005100005E02E4F076036E02D4F076033E02A4F8D
:100520003F1F3F68C7F38056274F3F1F3F6807F0C4
:100530003F036EB1264FB7FBF3F7DFF88CC0ACF189
:10054000040CDCF800C0CCF3881C07FB0CF40CE0B6
:100550001E4FB7FBF3F7DFF870C0ACF1040CDCF80A
:1005600000C0CCF3881C07FB0CF4174F3F1F3F68FB
:10057000C7F301477F1C7D00B4FBF5F7076002E07D
:10058000124F076000BF00BF0F4F3F6807F0F00138
:100590000909104F7A5C0768D74047600A4F3F68E7
:1005A00007F4E051890A0B4F7A5C4768D7408760AF
:1005B000054F3F6807F46041490B064F7A5C476876
:1005C000D740C760F0BD0000083802400024F400A6
:1005D00000127A001A00002000B587B001210846F9
:1005E000FFF756FF01210803FFF762FFE0200590A7
:1005F00002208DF8180000208DF81A0003208DF8D5
:10060000190001208DF81B0005A92148FFF763FEA2
:10061000052211461E48FFF7A6FE052206211C48AA
:10062000FFF7A1FE052207211948FFF79CFE0121D3
:100630000803FFF74DFF00214FF48050FFF748FFFC
:100640000020ADF800004FF48270ADF802000020E9
:10065000ADF80400ADF80600ADF808004FF40070E6
:10066000ADF80A002020ADF80C000020ADF80E0017
:100670000720ADF810006946064800F043F8012154
:10068000044800F025F8FF2000F006F807B000BD90
:10069000000002400030014010B5044600BF0221B6
:1006A0000A4800F021F80028F9D02146074800F058
:1006B00027F800BF0121054800F016F80028F9D0FE
:1006C000024800F01AF8C0B210BD0000003001402E
:1006D00021B1028842F04002028004E002884FF615
:1006E000BF731A40028070470246002013890B40F6
:1006F0000BB1012000E00020704701468889704757
:100700008181704710B50022028802F441520B88A3
:100710004C8823438C882343CC8823430C89234370
:100720004C8923438C892343CC8923431A43028079
:10073000838B4FF2FF74234083830B8A038210BDA7
:10074000704700000CB5002001900090344800680C
:1007500040F480303249086000BF3148006800F43E
:10076000003000900198401C0190009818B9019841
:10077000B0F5A04FF1D12A48006800F4003010B164
:100780000120009001E0002000900098012846D14F
:1007900023484030006840F08050214940310860D3
:1007A0002048006840F440401E4908601C4808305A
:1007B00000681B49083108600846006840F40040A2
:1007C00008600846006840F4A05008601648091FF9
:1007D0000860081F006840F08070091F086000BFB3
:1007E0000F48006800F000700028F9D040F2057052
:1007F0000E4908600A480830006820F003000849E4
:10080000083108600846006840F00200086000BF38
:1008100003480830006800F00C000828F8D10CBD2F
:10082000003802400070004008544007003C02407D
:10083000042808D14FF0E021096941F004014FF08C
:10084000E022116107E04FF0E021096921F0040185
:100850004FF0E022116170477047000010B5154855
:10086000006840F47000134908601348006840F0C5
:1008700001001149086000200F49083108600E4846
:1008800000680E4908400C4908600D48091D0860C1
:10089000081F006820F48020091F08600020064916
:1008A0000C310860FFF74EFF4FF0006001498039BE
:1008B000086010BD88ED00E000380240FFFFF6FE42
:1008C0001030002410B540F225511D4800F04AF8C0
:1008D00010B31B4800F000F9C4B21A48008800F4B5
:1008E0000040C8B91748008800F4804060B10A2C65
:1008F00003D000201349088020E01248008840F40B
:1009000000401049088019E00D2C06D10D480088E0
:1009100040F480400B49088010E00A480088C0F38A
:100920000D0009490C5407480088401C05490880FF
:1009300008460088C72801DD0020088010BD00009F
:1009400000100140180000202C00002021B18289F5
:1009500042F40052828104E082894DF6FF731A400E
:100960008281704770B502460024002300250020D4
:1009700040F66A16B14200D100BFC1F3421501F042
:100980001F03012606FA03F3012D02D19689334095
:1009900006E0022D02D1168A334001E0968A3340E8
:1009A0000C12012606FA04F41688344013B10CB177
:1009B000012000E0002070BDF0B5034600240026B1
:1009C0000025002040F66A17B94200D100BF184642
:1009D000C1F3421401F01F06012707FA06F5012CA6
:1009E00001D10C3004E0022C01D1103000E01430B1
:1009F0001AB107682F43076002E00768AF4307603A
:100A0000F0BD00002DE9FF4705460E460024A14633
:100A100000BFA046B08900B100BF2C8A24F4405426
:100A2000F08804432C82AC8941F20C608443B08886
:100A300031890843718908430443AC81AC8A24F4AA
:100A40004074B0890443AC826846FFF751FD2048EA
:100A5000854202D01F48854202D1DDF80C9001E0AA
:100A6000DDF80890A88900F4004040B109EBC90006
:100A700000EB091031684900B0FBF1F707E009EB22
:100A8000C90000EB091031688900B0FBF1F7642060
:100A9000B7FBF0F004012009642101FB1078A8895C
:100AA00000F4004040B1322000EBC800B0FBF1F090
:100AB00000F00700044308E0322000EB0810642136
:100AC000B0FBF1F000F00F0004432C81BDE8FF877C
:100AD000001001400014014001468888C0F308005E
:100AE000704700BFFEE700BF7047000010B5044626
:100AF0006FF00400FFF79CFEE11704EB5171C1F3A6
:100B0000C701074A11701046007800EB4001C1EBA5
:100B1000C0104FF6FF7101EAC0000249088010BD05
:100B2000100000201200002070B504464FF407703A
:100B300094FBF0F0C6B24FF4077094FBF0F100FBA9
:100B4000114085B205E04FF4077000F009F8701EFF
:100B5000C6B2002EF7D115B1284600F001F870BDDD
:100B60000146114A12884A434FF0E0235A6100229D
:100B70009A611A46126942F001021A6100BF4FF0F1
:100B8000E022106900F001021AB100F48032002A5C
:100B9000F5D04FF0E022126922F001024FF0E0237D
:100BA0001A6100229A6170471200002070B5044655
:100BB000002500F073F9FFF70FFD0120714908606F
:100BC000FF220021104600F04BF900BF1D2000F06D
:100BD000F6F800F001000028F8D000206A4908600B
:100BE0000021082000F030F90021092000F02CF944
:100BF00000210C2000F028F900210D2000F024F93C
:100C0000FE210A2000F020F919210B2000F01CF928
:100C1000FF21042000F018F91921052000F014F933
:100C2000FF21062000F010F91F21072000F00CF929
:100C3000B021382000F008F93F21282000F004F905
:100C40003021292000F000F9F921302000F0FCF8D3
:100C5000F721312000F0F8F80D21C02000F0F4F861
:100C60000021C12000F0F0F83322C221802000F0E2
:100C7000F7F81221C62000F0E7F80C21C72000F099
:100C8000E3F81521C42000F0DFF8DC21CA2000F0D1
:100C9000DBF80521CB2000F0D7F82178E42000F024
:100CA000D3F86178E52000F0CFF8A178E22000F0D9
:100CB000CBF8E178E32000F0C7F82179E02000F0DC
:100CC000C3F86179E12000F0BFF84FF48071002093
:100CD00000F05CF84FF48071102000F057F81F20EE
:100CE00000F098F8C1221B21802000F0B9F80422FE
:100CF0001F21802000F0B4F8E42000F060F80546E1
:100D0000E52000F05CF80546E22000F058F80546C2
:100D1000E32000F054F80546E02000F050F80546C6
:100D2000E12000F04CF8054628E0E42000F047F808
:100D30002178884220D1E52000F041F8617888428E
:100D40001AD1E22000F03BF8A178884214D1E320C8
:100D500000F035F8E17888420ED1E02000F02FF85D
:100D60002179884208D1E12000F029F86179884290
:100D700002D10120054601E000200546002DD4D017
:100D800070BD0000900240420C00002070B5054686
:100D90000C462946D42000F057F8E1B2D62000F0E6
:100DA00053F8C4F30721D72000F04EF800BFEA2023
:100DB00000F005F800F001000028F8D170BD10B572
:100DC0000446204600F026F82146002000F002F8F4
:100DD00010BD000070B505460C46002600200C49E9
:100DE000086004F01F0040EA05063046FFF754FC97
:100DF000FF20FFF751FC064604F0800018B1FF20E9
:100E0000FFF74AFC0646012001490860304670BDE4
:100E10009002404210B5044604F060000949097888
:100E200088420ED003221F21A02000F019F8C4F33D
:100E300041121F21802000F013F804F060000149E6
:100E4000087010BD0800002070B504460D4620460D
:100E5000FFF7E0FF2A462146402000F001F870BD70
:100E60002DE9F04104460D461646002700200949A9
:100E7000086005F01F0040EA04073846FFF70CFC45
:100E800037463846FFF708FC01200349C1F89002B5
:100E9000BDE8F08190024042000040421CB50121B3
:100EA0000846FFF7F5FA1020009001208DF80400A5
:100EB00000208DF8060003208DF8050001208DF834
:100EC000070069460148FFF706FA1CBD0000024012
:100ED00000BFA820FFF70AFE4FF4E13000F024F82D
:100EE000FFF768FA0D48FFF761FE15E000200C4996
:100EF000086001200B49C1F890024FF4FA70FFF727
:100F000013FE01200649086000200649C1F890023E
:100F10004FF4FA70FFF708FEE8E700000000002039
:100F2000BC0240420080404210B588B00446012116
:100F30000846FFF7ADFA01211020FFF7B9FA0722A2
:100F400009212248FFF70FFA07220A211F48FFF75D
:100F50000AFA4FF4C060069002208DF81C008DF84C
:100F60001D0000208DF81E0001208DF81F0006A92D
:100F70001648FFF7B0F902940020ADF80C00ADF868
:100F80000E00ADF81000ADF814000C20ADF8120002
:100F900002A90F48FFF736FD01210D48FFF7D6FCE7
:100FA000012240F225510A48FFF706FD25208DF861
:100FB000040003208DF805008DF8060001208DF84F
:100FC000070001A8FFF726FA08B010BD0000024094
:100FD000001001404FF04070E1EE100A7047000031
:100FE00000100008000000202C000000C4010008D0
:100FF0002C1000082C0000202C070000E001000845
:101000000202000D060800000000000000000000C1
:1010100000000000000000000000000000000102CD
:0C10200003040102030406070809000095
:040000050800018965
:00000001FF
